{
  "contractName": "MyToken",
  "abi": [
    {
      "inputs": [],
      "stateMutability": "nonpayable",
      "type": "constructor"
    },
    {
      "anonymous": false,
      "inputs": [
        {
          "indexed": true,
          "internalType": "address",
          "name": "owner",
          "type": "address"
        },
        {
          "indexed": true,
          "internalType": "address",
          "name": "spender",
          "type": "address"
        },
        {
          "indexed": false,
          "internalType": "uint256",
          "name": "value",
          "type": "uint256"
        }
      ],
      "name": "Approval",
      "type": "event"
    },
    {
      "anonymous": false,
      "inputs": [
        {
          "indexed": true,
          "internalType": "address",
          "name": "delegator",
          "type": "address"
        },
        {
          "indexed": true,
          "internalType": "address",
          "name": "fromDelegate",
          "type": "address"
        },
        {
          "indexed": true,
          "internalType": "address",
          "name": "toDelegate",
          "type": "address"
        }
      ],
      "name": "DelegateChanged",
      "type": "event"
    },
    {
      "anonymous": false,
      "inputs": [
        {
          "indexed": true,
          "internalType": "address",
          "name": "delegate",
          "type": "address"
        },
        {
          "indexed": false,
          "internalType": "uint256",
          "name": "previousBalance",
          "type": "uint256"
        },
        {
          "indexed": false,
          "internalType": "uint256",
          "name": "newBalance",
          "type": "uint256"
        }
      ],
      "name": "DelegateVotesChanged",
      "type": "event"
    },
    {
      "anonymous": false,
      "inputs": [
        {
          "indexed": true,
          "internalType": "address",
          "name": "from",
          "type": "address"
        },
        {
          "indexed": true,
          "internalType": "address",
          "name": "to",
          "type": "address"
        },
        {
          "indexed": false,
          "internalType": "uint256",
          "name": "value",
          "type": "uint256"
        }
      ],
      "name": "Transfer",
      "type": "event"
    },
    {
      "inputs": [],
      "name": "DOMAIN_SEPARATOR",
      "outputs": [
        {
          "internalType": "bytes32",
          "name": "",
          "type": "bytes32"
        }
      ],
      "stateMutability": "view",
      "type": "function"
    },
    {
      "inputs": [
        {
          "internalType": "address",
          "name": "owner",
          "type": "address"
        },
        {
          "internalType": "address",
          "name": "spender",
          "type": "address"
        }
      ],
      "name": "allowance",
      "outputs": [
        {
          "internalType": "uint256",
          "name": "",
          "type": "uint256"
        }
      ],
      "stateMutability": "view",
      "type": "function"
    },
    {
      "inputs": [
        {
          "internalType": "address",
          "name": "spender",
          "type": "address"
        },
        {
          "internalType": "uint256",
          "name": "amount",
          "type": "uint256"
        }
      ],
      "name": "approve",
      "outputs": [
        {
          "internalType": "bool",
          "name": "",
          "type": "bool"
        }
      ],
      "stateMutability": "nonpayable",
      "type": "function"
    },
    {
      "inputs": [
        {
          "internalType": "address",
          "name": "account",
          "type": "address"
        }
      ],
      "name": "balanceOf",
      "outputs": [
        {
          "internalType": "uint256",
          "name": "",
          "type": "uint256"
        }
      ],
      "stateMutability": "view",
      "type": "function"
    },
    {
      "inputs": [
        {
          "internalType": "uint256",
          "name": "amount",
          "type": "uint256"
        }
      ],
      "name": "burn",
      "outputs": [],
      "stateMutability": "nonpayable",
      "type": "function"
    },
    {
      "inputs": [
        {
          "internalType": "address",
          "name": "account",
          "type": "address"
        },
        {
          "internalType": "uint256",
          "name": "amount",
          "type": "uint256"
        }
      ],
      "name": "burnFrom",
      "outputs": [],
      "stateMutability": "nonpayable",
      "type": "function"
    },
    {
      "inputs": [
        {
          "internalType": "address",
          "name": "account",
          "type": "address"
        },
        {
          "internalType": "uint32",
          "name": "pos",
          "type": "uint32"
        }
      ],
      "name": "checkpoints",
      "outputs": [
        {
          "components": [
            {
              "internalType": "uint32",
              "name": "fromBlock",
              "type": "uint32"
            },
            {
              "internalType": "uint224",
              "name": "votes",
              "type": "uint224"
            }
          ],
          "internalType": "struct ERC20Votes.Checkpoint",
          "name": "",
          "type": "tuple"
        }
      ],
      "stateMutability": "view",
      "type": "function"
    },
    {
      "inputs": [],
      "name": "decimals",
      "outputs": [
        {
          "internalType": "uint8",
          "name": "",
          "type": "uint8"
        }
      ],
      "stateMutability": "view",
      "type": "function"
    },
    {
      "inputs": [
        {
          "internalType": "address",
          "name": "spender",
          "type": "address"
        },
        {
          "internalType": "uint256",
          "name": "subtractedValue",
          "type": "uint256"
        }
      ],
      "name": "decreaseAllowance",
      "outputs": [
        {
          "internalType": "bool",
          "name": "",
          "type": "bool"
        }
      ],
      "stateMutability": "nonpayable",
      "type": "function"
    },
    {
      "inputs": [
        {
          "internalType": "address",
          "name": "delegatee",
          "type": "address"
        }
      ],
      "name": "delegate",
      "outputs": [],
      "stateMutability": "nonpayable",
      "type": "function"
    },
    {
      "inputs": [
        {
          "internalType": "address",
          "name": "delegatee",
          "type": "address"
        },
        {
          "internalType": "uint256",
          "name": "nonce",
          "type": "uint256"
        },
        {
          "internalType": "uint256",
          "name": "expiry",
          "type": "uint256"
        },
        {
          "internalType": "uint8",
          "name": "v",
          "type": "uint8"
        },
        {
          "internalType": "bytes32",
          "name": "r",
          "type": "bytes32"
        },
        {
          "internalType": "bytes32",
          "name": "s",
          "type": "bytes32"
        }
      ],
      "name": "delegateBySig",
      "outputs": [],
      "stateMutability": "nonpayable",
      "type": "function"
    },
    {
      "inputs": [
        {
          "internalType": "address",
          "name": "account",
          "type": "address"
        }
      ],
      "name": "delegates",
      "outputs": [
        {
          "internalType": "address",
          "name": "",
          "type": "address"
        }
      ],
      "stateMutability": "view",
      "type": "function"
    },
    {
      "inputs": [
        {
          "internalType": "uint256",
          "name": "blockNumber",
          "type": "uint256"
        }
      ],
      "name": "getPastTotalSupply",
      "outputs": [
        {
          "internalType": "uint256",
          "name": "",
          "type": "uint256"
        }
      ],
      "stateMutability": "view",
      "type": "function"
    },
    {
      "inputs": [
        {
          "internalType": "address",
          "name": "account",
          "type": "address"
        },
        {
          "internalType": "uint256",
          "name": "blockNumber",
          "type": "uint256"
        }
      ],
      "name": "getPastVotes",
      "outputs": [
        {
          "internalType": "uint256",
          "name": "",
          "type": "uint256"
        }
      ],
      "stateMutability": "view",
      "type": "function"
    },
    {
      "inputs": [
        {
          "internalType": "address",
          "name": "account",
          "type": "address"
        }
      ],
      "name": "getVotes",
      "outputs": [
        {
          "internalType": "uint256",
          "name": "",
          "type": "uint256"
        }
      ],
      "stateMutability": "view",
      "type": "function"
    },
    {
      "inputs": [
        {
          "internalType": "address",
          "name": "spender",
          "type": "address"
        },
        {
          "internalType": "uint256",
          "name": "addedValue",
          "type": "uint256"
        }
      ],
      "name": "increaseAllowance",
      "outputs": [
        {
          "internalType": "bool",
          "name": "",
          "type": "bool"
        }
      ],
      "stateMutability": "nonpayable",
      "type": "function"
    },
    {
      "inputs": [],
      "name": "name",
      "outputs": [
        {
          "internalType": "string",
          "name": "",
          "type": "string"
        }
      ],
      "stateMutability": "view",
      "type": "function"
    },
    {
      "inputs": [
        {
          "internalType": "address",
          "name": "owner",
          "type": "address"
        }
      ],
      "name": "nonces",
      "outputs": [
        {
          "internalType": "uint256",
          "name": "",
          "type": "uint256"
        }
      ],
      "stateMutability": "view",
      "type": "function"
    },
    {
      "inputs": [
        {
          "internalType": "address",
          "name": "account",
          "type": "address"
        }
      ],
      "name": "numCheckpoints",
      "outputs": [
        {
          "internalType": "uint32",
          "name": "",
          "type": "uint32"
        }
      ],
      "stateMutability": "view",
      "type": "function"
    },
    {
      "inputs": [
        {
          "internalType": "address",
          "name": "owner",
          "type": "address"
        },
        {
          "internalType": "address",
          "name": "spender",
          "type": "address"
        },
        {
          "internalType": "uint256",
          "name": "value",
          "type": "uint256"
        },
        {
          "internalType": "uint256",
          "name": "deadline",
          "type": "uint256"
        },
        {
          "internalType": "uint8",
          "name": "v",
          "type": "uint8"
        },
        {
          "internalType": "bytes32",
          "name": "r",
          "type": "bytes32"
        },
        {
          "internalType": "bytes32",
          "name": "s",
          "type": "bytes32"
        }
      ],
      "name": "permit",
      "outputs": [],
      "stateMutability": "nonpayable",
      "type": "function"
    },
    {
      "inputs": [],
      "name": "symbol",
      "outputs": [
        {
          "internalType": "string",
          "name": "",
          "type": "string"
        }
      ],
      "stateMutability": "view",
      "type": "function"
    },
    {
      "inputs": [],
      "name": "totalSupply",
      "outputs": [
        {
          "internalType": "uint256",
          "name": "",
          "type": "uint256"
        }
      ],
      "stateMutability": "view",
      "type": "function"
    },
    {
      "inputs": [
        {
          "internalType": "address",
          "name": "to",
          "type": "address"
        },
        {
          "internalType": "uint256",
          "name": "amount",
          "type": "uint256"
        }
      ],
      "name": "transfer",
      "outputs": [
        {
          "internalType": "bool",
          "name": "",
          "type": "bool"
        }
      ],
      "stateMutability": "nonpayable",
      "type": "function"
    },
    {
      "inputs": [
        {
          "internalType": "address",
          "name": "from",
          "type": "address"
        },
        {
          "internalType": "address",
          "name": "to",
          "type": "address"
        },
        {
          "internalType": "uint256",
          "name": "amount",
          "type": "uint256"
        }
      ],
      "name": "transferFrom",
      "outputs": [
        {
          "internalType": "bool",
          "name": "",
          "type": "bool"
        }
      ],
      "stateMutability": "nonpayable",
      "type": "function"
    }
  ],
  "bytecode": "0x6101406040523480156200001257600080fd5b506040518060400160405280600781526020017f4d79546f6b656e00000000000000000000000000000000000000000000000000815250806040518060400160405280600181526020017f31000000000000000000000000000000000000000000000000000000000000008152506040518060400160405280600781526020017f4d79546f6b656e000000000000000000000000000000000000000000000000008152506040518060400160405280600381526020017f4d544b00000000000000000000000000000000000000000000000000000000008152508160039081620000fd919062000e56565b5080600490816200010f919062000e56565b50505060008280519060200120905060008280519060200120905060007f8b73c3c69bb8fe3d512ecc4cf759cc79239f7b179b0ffacaa9a75d522b39400f90508260e081815250508161010081815250504660a081815250506200017b8184846200020a60201b60201c565b608081815250503073ffffffffffffffffffffffffffffffffffffffff1660c08173ffffffffffffffffffffffffffffffffffffffff16815250508061012081815250505050505050506200020433620001da6200024660201b60201c565b600a620001e89190620010cd565b6216e360620001f891906200111e565b6200024f60201b60201c565b62001542565b6000838383463060405160200162000227959493929190620011da565b6040516020818303038152906040528051906020012090509392505050565b60006012905090565b6200026682826200026a60201b62000efd1760201c565b5050565b6200028182826200032860201b62000f8a1760201c565b620002916200049560201b60201c565b7bffffffffffffffffffffffffffffffffffffffffffffffffffffffff16620002bf620004b960201b60201c565b111562000303576040517f08c379a0000000000000000000000000000000000000000000000000000000008152600401620002fa90620012be565b60405180910390fd5b620003226009620004c360201b620010e01783620004db60201b60201c565b50505050565b600073ffffffffffffffffffffffffffffffffffffffff168273ffffffffffffffffffffffffffffffffffffffff16036200039a576040517f08c379a0000000000000000000000000000000000000000000000000000000008152600401620003919062001330565b60405180910390fd5b620003ae60008383620007e860201b60201c565b8060026000828254620003c2919062001352565b92505081905550806000808473ffffffffffffffffffffffffffffffffffffffff1673ffffffffffffffffffffffffffffffffffffffff168152602001908152602001600020600082825401925050819055508173ffffffffffffffffffffffffffffffffffffffff16600073ffffffffffffffffffffffffffffffffffffffff167fddf252ad1be2c89b69c2b068fc378daa952ba7f163c4a11628f55a4df523b3ef836040516200047591906200138d565b60405180910390a36200049160008383620007ed60201b60201c565b5050565b60007bffffffffffffffffffffffffffffffffffffffffffffffffffffffff905090565b6000600254905090565b60008183620004d3919062001352565b905092915050565b6000806000858054905090506000808214620005b6576200051187600184620005059190620013aa565b6200080a60201b60201c565b6040518060400160405290816000820160009054906101000a900463ffffffff1663ffffffff1663ffffffff1681526020016000820160049054906101000a90047bffffffffffffffffffffffffffffffffffffffffffffffffffffffff167bffffffffffffffffffffffffffffffffffffffffffffffffffffffff167bffffffffffffffffffffffffffffffffffffffffffffffffffffffff1681525050620005f2565b6040518060400160405280600063ffffffff16815260200160007bffffffffffffffffffffffffffffffffffffffffffffffffffffffff168152505b905080602001517bffffffffffffffffffffffffffffffffffffffffffffffffffffffff1693506200062584868860201c565b925060008211801562000641575043816000015163ffffffff16145b15620006d4576200065d836200081f60201b620010f61760201c565b6200067d88600185620006719190620013aa565b6200080a60201b60201c565b60000160046101000a8154817bffffffffffffffffffffffffffffffffffffffffffffffffffffffff02191690837bffffffffffffffffffffffffffffffffffffffffffffffffffffffff160217905550620007de565b866040518060400160405280620006f6436200088d60201b620011611760201c565b63ffffffff16815260200162000717866200081f60201b620010f61760201c565b7bffffffffffffffffffffffffffffffffffffffffffffffffffffffff168152509080600181540180825580915050600190039060005260206000200160009091909190915060008201518160000160006101000a81548163ffffffff021916908363ffffffff16021790555060208201518160000160046101000a8154817bffffffffffffffffffffffffffffffffffffffffffffffffffffffff02191690837bffffffffffffffffffffffffffffffffffffffffffffffffffffffff16021790555050505b5050935093915050565b505050565b62000805838383620008e360201b620011b41760201c565b505050565b60008260005281602060002001905092915050565b60007bffffffffffffffffffffffffffffffffffffffffffffffffffffffff801682111562000885576040517f08c379a00000000000000000000000000000000000000000000000000000000081526004016200087c906200145b565b60405180910390fd5b819050919050565b600063ffffffff8016821115620008db576040517f08c379a0000000000000000000000000000000000000000000000000000000008152600401620008d290620014f3565b60405180910390fd5b819050919050565b620008fb8383836200093360201b620011df1760201c565b6200092e62000910846200093860201b60201c565b62000921846200093860201b60201c565b83620009a160201b60201c565b505050565b505050565b6000600760008373ffffffffffffffffffffffffffffffffffffffff1673ffffffffffffffffffffffffffffffffffffffff16815260200190815260200160002060009054906101000a900473ffffffffffffffffffffffffffffffffffffffff169050919050565b8173ffffffffffffffffffffffffffffffffffffffff168373ffffffffffffffffffffffffffffffffffffffff1614158015620009de5750600081115b1562000bbf57600073ffffffffffffffffffffffffffffffffffffffff168373ffffffffffffffffffffffffffffffffffffffff161462000ad15760008062000a78600860008773ffffffffffffffffffffffffffffffffffffffff1673ffffffffffffffffffffffffffffffffffffffff16815260200190815260200160002062000bc460201b620011e41785620004db60201b60201c565b915091508473ffffffffffffffffffffffffffffffffffffffff167fdec2bacdd2f05b59de34da9b523dff8be42e5e38e818c82fdb0bae774387a724838360405162000ac692919062001515565b60405180910390a250505b600073ffffffffffffffffffffffffffffffffffffffff168273ffffffffffffffffffffffffffffffffffffffff161462000bbe5760008062000b65600860008673ffffffffffffffffffffffffffffffffffffffff1673ffffffffffffffffffffffffffffffffffffffff168152602001908152602001600020620004c360201b620010e01785620004db60201b60201c565b915091508373ffffffffffffffffffffffffffffffffffffffff167fdec2bacdd2f05b59de34da9b523dff8be42e5e38e818c82fdb0bae774387a724838360405162000bb392919062001515565b60405180910390a250505b5b505050565b6000818362000bd49190620013aa565b905092915050565b600081519050919050565b7f4e487b7100000000000000000000000000000000000000000000000000000000600052604160045260246000fd5b7f4e487b7100000000000000000000000000000000000000000000000000000000600052602260045260246000fd5b6000600282049050600182168062000c5e57607f821691505b60208210810362000c745762000c7362000c16565b5b50919050565b60008190508160005260206000209050919050565b60006020601f8301049050919050565b600082821b905092915050565b60006008830262000cde7fffffffffffffffffffffffffffffffffffffffffffffffffffffffffffffffff8262000c9f565b62000cea868362000c9f565b95508019841693508086168417925050509392505050565b6000819050919050565b6000819050919050565b600062000d3762000d3162000d2b8462000d02565b62000d0c565b62000d02565b9050919050565b6000819050919050565b62000d538362000d16565b62000d6b62000d628262000d3e565b84845462000cac565b825550505050565b600090565b62000d8262000d73565b62000d8f81848462000d48565b505050565b5b8181101562000db75762000dab60008262000d78565b60018101905062000d95565b5050565b601f82111562000e065762000dd08162000c7a565b62000ddb8462000c8f565b8101602085101562000deb578190505b62000e0362000dfa8562000c8f565b83018262000d94565b50505b505050565b600082821c905092915050565b600062000e2b6000198460080262000e0b565b1980831691505092915050565b600062000e46838362000e18565b9150826002028217905092915050565b62000e618262000bdc565b67ffffffffffffffff81111562000e7d5762000e7c62000be7565b5b62000e89825462000c45565b62000e9682828562000dbb565b600060209050601f83116001811462000ece576000841562000eb9578287015190505b62000ec5858262000e38565b86555062000f35565b601f19841662000ede8662000c7a565b60005b8281101562000f085784890151825560018201915060208501945060208101905062000ee1565b8683101562000f28578489015162000f24601f89168262000e18565b8355505b6001600288020188555050505b505050505050565b7f4e487b7100000000000000000000000000000000000000000000000000000000600052601160045260246000fd5b60008160011c9050919050565b6000808291508390505b600185111562000fcb5780860481111562000fa35762000fa262000f3d565b5b600185161562000fb35780820291505b808102905062000fc38562000f6c565b945062000f83565b94509492505050565b60008262000fe65760019050620010b9565b8162000ff65760009050620010b9565b81600181146200100f57600281146200101a5762001050565b6001915050620010b9565b60ff8411156200102f576200102e62000f3d565b5b8360020a91508482111562001049576200104862000f3d565b5b50620010b9565b5060208310610133831016604e8410600b84101617156200108a5782820a90508381111562001084576200108362000f3d565b5b620010b9565b62001099848484600162000f79565b92509050818404811115620010b357620010b262000f3d565b5b81810290505b9392505050565b600060ff82169050919050565b6000620010da8262000d02565b9150620010e783620010c0565b9250620011167fffffffffffffffffffffffffffffffffffffffffffffffffffffffffffffffff848462000fd4565b905092915050565b60006200112b8262000d02565b9150620011388362000d02565b9250828202620011488162000d02565b9150828204841483151762001162576200116162000f3d565b5b5092915050565b6000819050919050565b6200117e8162001169565b82525050565b6200118f8162000d02565b82525050565b600073ffffffffffffffffffffffffffffffffffffffff82169050919050565b6000620011c28262001195565b9050919050565b620011d481620011b5565b82525050565b600060a082019050620011f1600083018862001173565b62001200602083018762001173565b6200120f604083018662001173565b6200121e606083018562001184565b6200122d6080830184620011c9565b9695505050505050565b600082825260208201905092915050565b7f4552433230566f7465733a20746f74616c20737570706c79207269736b73206f60008201527f766572666c6f77696e6720766f74657300000000000000000000000000000000602082015250565b6000620012a660308362001237565b9150620012b38262001248565b604082019050919050565b60006020820190508181036000830152620012d98162001297565b9050919050565b7f45524332303a206d696e7420746f20746865207a65726f206164647265737300600082015250565b600062001318601f8362001237565b91506200132582620012e0565b602082019050919050565b600060208201905081810360008301526200134b8162001309565b9050919050565b60006200135f8262000d02565b91506200136c8362000d02565b925082820190508082111562001387576200138662000f3d565b5b92915050565b6000602082019050620013a4600083018462001184565b92915050565b6000620013b78262000d02565b9150620013c48362000d02565b9250828203905081811115620013df57620013de62000f3d565b5b92915050565b7f53616665436173743a2076616c756520646f65736e27742066697420696e203260008201527f3234206269747300000000000000000000000000000000000000000000000000602082015250565b60006200144360278362001237565b91506200145082620013e5565b604082019050919050565b60006020820190508181036000830152620014768162001434565b9050919050565b7f53616665436173743a2076616c756520646f65736e27742066697420696e203360008201527f3220626974730000000000000000000000000000000000000000000000000000602082015250565b6000620014db60268362001237565b9150620014e8826200147d565b604082019050919050565b600060208201905081810360008301526200150e81620014cc565b9050919050565b60006040820190506200152c600083018562001184565b6200153b602083018462001184565b9392505050565b60805160a05160c05160e0516101005161012051613c0362001592600039600061177b015260006117bd0152600061179c015260006116d101526000611727015260006117500152613c036000f3fe608060405234801561001057600080fd5b50600436106101585760003560e01c806370a08231116100c3578063a457c2d71161007c578063a457c2d714610427578063a9059cbb14610457578063c3cda52014610487578063d505accf146104a3578063dd62ed3e146104bf578063f1127ed8146104ef57610158565b806370a082311461032d57806379cc67901461035d5780637ecebe00146103795780638e539e8c146103a957806395d89b41146103d95780639ab24eb0146103f757610158565b8063395093511161011557806339509351146102355780633a46b1a81461026557806342966c6814610295578063587cde1e146102b15780635c19a95c146102e15780636fcfff45146102fd57610158565b806306fdde031461015d578063095ea7b31461017b57806318160ddd146101ab57806323b872dd146101c9578063313ce567146101f95780633644e51514610217575b600080fd5b61016561051f565b60405161017291906127c4565b60405180910390f35b6101956004803603810190610190919061287f565b6105b1565b6040516101a291906128da565b60405180910390f35b6101b36105d4565b6040516101c09190612904565b60405180910390f35b6101e360048036038101906101de919061291f565b6105de565b6040516101f091906128da565b60405180910390f35b61020161060d565b60405161020e919061298e565b60405180910390f35b61021f610616565b60405161022c91906129c2565b60405180910390f35b61024f600480360381019061024a919061287f565b610625565b60405161025c91906128da565b60405180910390f35b61027f600480360381019061027a919061287f565b61065c565b60405161028c9190612904565b60405180910390f35b6102af60048036038101906102aa91906129dd565b6106f0565b005b6102cb60048036038101906102c69190612a0a565b610704565b6040516102d89190612a46565b60405180910390f35b6102fb60048036038101906102f69190612a0a565b61076d565b005b61031760048036038101906103129190612a0a565b610781565b6040516103249190612a80565b60405180910390f35b61034760048036038101906103429190612a0a565b6107d5565b6040516103549190612904565b60405180910390f35b6103776004803603810190610372919061287f565b61081d565b005b610393600480360381019061038e9190612a0a565b61083d565b6040516103a09190612904565b60405180910390f35b6103c360048036038101906103be91906129dd565b61088d565b6040516103d09190612904565b60405180910390f35b6103e16108e3565b6040516103ee91906127c4565b60405180910390f35b610411600480360381019061040c9190612a0a565b610975565b60405161041e9190612904565b60405180910390f35b610441600480360381019061043c919061287f565b610a86565b60405161044e91906128da565b60405180910390f35b610471600480360381019061046c919061287f565b610afd565b60405161047e91906128da565b60405180910390f35b6104a1600480360381019061049c9190612af3565b610b20565b005b6104bd60048036038101906104b89190612b80565b610c24565b005b6104d960048036038101906104d49190612c22565b610d66565b6040516104e69190612904565b60405180910390f35b61050960048036038101906105049190612c8e565b610ded565b6040516105169190612d43565b60405180910390f35b60606003805461052e90612d8d565b80601f016020809104026020016040519081016040528092919081815260200182805461055a90612d8d565b80156105a75780601f1061057c576101008083540402835291602001916105a7565b820191906000526020600020905b81548152906001019060200180831161058a57829003601f168201915b5050505050905090565b6000806105bc6111fa565b90506105c9818585611202565b600191505092915050565b6000600254905090565b6000806105e96111fa565b90506105f68582856113cb565b610601858585611457565b60019150509392505050565b60006012905090565b60006106206116cd565b905090565b6000806106306111fa565b90506106518185856106428589610d66565b61064c9190612ded565b611202565b600191505092915050565b60004382106106a0576040517f08c379a000000000000000000000000000000000000000000000000000000000815260040161069790612e6d565b60405180910390fd5b6106e8600860008573ffffffffffffffffffffffffffffffffffffffff1673ffffffffffffffffffffffffffffffffffffffff168152602001908152602001600020836117e7565b905092915050565b6107016106fb6111fa565b82611938565b50565b6000600760008373ffffffffffffffffffffffffffffffffffffffff1673ffffffffffffffffffffffffffffffffffffffff16815260200190815260200160002060009054906101000a900473ffffffffffffffffffffffffffffffffffffffff169050919050565b61077e6107786111fa565b82611946565b50565b60006107ce600860008473ffffffffffffffffffffffffffffffffffffffff1673ffffffffffffffffffffffffffffffffffffffff16815260200190815260200160002080549050611161565b9050919050565b60008060008373ffffffffffffffffffffffffffffffffffffffff1673ffffffffffffffffffffffffffffffffffffffff168152602001908152602001600020549050919050565b61082f826108296111fa565b836113cb565b6108398282611938565b5050565b6000610886600560008473ffffffffffffffffffffffffffffffffffffffff1673ffffffffffffffffffffffffffffffffffffffff168152602001908152602001600020611a60565b9050919050565b60004382106108d1576040517f08c379a00000000000000000000000000000000000000000000000000000000081526004016108c890612e6d565b60405180910390fd5b6108dc6009836117e7565b9050919050565b6060600480546108f290612d8d565b80601f016020809104026020016040519081016040528092919081815260200182805461091e90612d8d565b801561096b5780601f106109405761010080835404028352916020019161096b565b820191906000526020600020905b81548152906001019060200180831161094e57829003601f168201915b5050505050905090565b600080600860008473ffffffffffffffffffffffffffffffffffffffff1673ffffffffffffffffffffffffffffffffffffffff16815260200190815260200160002080549050905060008114610a5d57600860008473ffffffffffffffffffffffffffffffffffffffff1673ffffffffffffffffffffffffffffffffffffffff168152602001908152602001600020600182610a119190612e8d565b81548110610a2257610a21612ec1565b5b9060005260206000200160000160049054906101000a90047bffffffffffffffffffffffffffffffffffffffffffffffffffffffff16610a60565b60005b7bffffffffffffffffffffffffffffffffffffffffffffffffffffffff16915050919050565b600080610a916111fa565b90506000610a9f8286610d66565b905083811015610ae4576040517f08c379a0000000000000000000000000000000000000000000000000000000008152600401610adb90612f62565b60405180910390fd5b610af18286868403611202565b60019250505092915050565b600080610b086111fa565b9050610b15818585611457565b600191505092915050565b83421115610b63576040517f08c379a0000000000000000000000000000000000000000000000000000000008152600401610b5a90612fce565b60405180910390fd5b6000610bc5610bbd7fe48329057bfd03d55e49b547132e39cffd9c1820ad7b9d4c5307691425d15adf898989604051602001610ba29493929190612fee565b60405160208183030381529060405280519060200120611a6e565b858585611a88565b9050610bd081611ab3565b8614610c11576040517f08c379a0000000000000000000000000000000000000000000000000000000008152600401610c089061307f565b60405180910390fd5b610c1b8188611946565b50505050505050565b83421115610c67576040517f08c379a0000000000000000000000000000000000000000000000000000000008152600401610c5e906130eb565b60405180910390fd5b60007f6e71edae12b1b97f4d1f60370fef10105fa2faae0126114a169c64845d6126c9888888610c968c611ab3565b89604051602001610cac9695949392919061310b565b6040516020818303038152906040528051906020012090506000610ccf82611a6e565b90506000610cdf82878787611a88565b90508973ffffffffffffffffffffffffffffffffffffffff168173ffffffffffffffffffffffffffffffffffffffff1614610d4f576040517f08c379a0000000000000000000000000000000000000000000000000000000008152600401610d46906131b8565b60405180910390fd5b610d5a8a8a8a611202565b50505050505050505050565b6000600160008473ffffffffffffffffffffffffffffffffffffffff1673ffffffffffffffffffffffffffffffffffffffff16815260200190815260200160002060008373ffffffffffffffffffffffffffffffffffffffff1673ffffffffffffffffffffffffffffffffffffffff16815260200190815260200160002054905092915050565b610df56126f6565b600860008473ffffffffffffffffffffffffffffffffffffffff1673ffffffffffffffffffffffffffffffffffffffff1681526020019081526020016000208263ffffffff1681548110610e4c57610e4b612ec1565b5b906000526020600020016040518060400160405290816000820160009054906101000a900463ffffffff1663ffffffff1663ffffffff1681526020016000820160049054906101000a90047bffffffffffffffffffffffffffffffffffffffffffffffffffffffff167bffffffffffffffffffffffffffffffffffffffffffffffffffffffff167bffffffffffffffffffffffffffffffffffffffffffffffffffffffff1681525050905092915050565b610f078282610f8a565b610f0f611b11565b7bffffffffffffffffffffffffffffffffffffffffffffffffffffffff16610f356105d4565b1115610f76576040517f08c379a0000000000000000000000000000000000000000000000000000000008152600401610f6d9061324a565b60405180910390fd5b610f8460096110e083611b35565b50505050565b600073ffffffffffffffffffffffffffffffffffffffff168273ffffffffffffffffffffffffffffffffffffffff1603610ff9576040517f08c379a0000000000000000000000000000000000000000000000000000000008152600401610ff0906132b6565b60405180910390fd5b61100560008383611e04565b80600260008282546110179190612ded565b92505081905550806000808473ffffffffffffffffffffffffffffffffffffffff1673ffffffffffffffffffffffffffffffffffffffff168152602001908152602001600020600082825401925050819055508173ffffffffffffffffffffffffffffffffffffffff16600073ffffffffffffffffffffffffffffffffffffffff167fddf252ad1be2c89b69c2b068fc378daa952ba7f163c4a11628f55a4df523b3ef836040516110c89190612904565b60405180910390a36110dc60008383611e09565b5050565b600081836110ee9190612ded565b905092915050565b60007bffffffffffffffffffffffffffffffffffffffffffffffffffffffff8016821115611159576040517f08c379a000000000000000000000000000000000000000000000000000000000815260040161115090613348565b60405180910390fd5b819050919050565b600063ffffffff80168211156111ac576040517f08c379a00000000000000000000000000000000000000000000000000000000081526004016111a3906133da565b60405180910390fd5b819050919050565b6111bf8383836111df565b6111da6111cb84610704565b6111d484610704565b83611e19565b505050565b505050565b600081836111f29190612e8d565b905092915050565b600033905090565b600073ffffffffffffffffffffffffffffffffffffffff168373ffffffffffffffffffffffffffffffffffffffff1603611271576040517f08c379a00000000000000000000000000000000000000000000000000000000081526004016112689061346c565b60405180910390fd5b600073ffffffffffffffffffffffffffffffffffffffff168273ffffffffffffffffffffffffffffffffffffffff16036112e0576040517f08c379a00000000000000000000000000000000000000000000000000000000081526004016112d7906134fe565b60405180910390fd5b80600160008573ffffffffffffffffffffffffffffffffffffffff1673ffffffffffffffffffffffffffffffffffffffff16815260200190815260200160002060008473ffffffffffffffffffffffffffffffffffffffff1673ffffffffffffffffffffffffffffffffffffffff168152602001908152602001600020819055508173ffffffffffffffffffffffffffffffffffffffff168373ffffffffffffffffffffffffffffffffffffffff167f8c5be1e5ebec7d5bd14f71427d1e84f3dd0314c0f7b2291e5b200ac8c7c3b925836040516113be9190612904565b60405180910390a3505050565b60006113d78484610d66565b90507fffffffffffffffffffffffffffffffffffffffffffffffffffffffffffffffff81146114515781811015611443576040517f08c379a000000000000000000000000000000000000000000000000000000000815260040161143a9061356a565b60405180910390fd5b6114508484848403611202565b5b50505050565b600073ffffffffffffffffffffffffffffffffffffffff168373ffffffffffffffffffffffffffffffffffffffff16036114c6576040517f08c379a00000000000000000000000000000000000000000000000000000000081526004016114bd906135fc565b60405180910390fd5b600073ffffffffffffffffffffffffffffffffffffffff168273ffffffffffffffffffffffffffffffffffffffff1603611535576040517f08c379a000000000000000000000000000000000000000000000000000000000815260040161152c9061368e565b60405180910390fd5b611540838383611e04565b60008060008573ffffffffffffffffffffffffffffffffffffffff1673ffffffffffffffffffffffffffffffffffffffff168152602001908152602001600020549050818110156115c6576040517f08c379a00000000000000000000000000000000000000000000000000000000081526004016115bd90613720565b60405180910390fd5b8181036000808673ffffffffffffffffffffffffffffffffffffffff1673ffffffffffffffffffffffffffffffffffffffff16815260200190815260200160002081905550816000808573ffffffffffffffffffffffffffffffffffffffff1673ffffffffffffffffffffffffffffffffffffffff168152602001908152602001600020600082825401925050819055508273ffffffffffffffffffffffffffffffffffffffff168473ffffffffffffffffffffffffffffffffffffffff167fddf252ad1be2c89b69c2b068fc378daa952ba7f163c4a11628f55a4df523b3ef846040516116b49190612904565b60405180910390a36116c7848484611e09565b50505050565b60007f000000000000000000000000000000000000000000000000000000000000000073ffffffffffffffffffffffffffffffffffffffff163073ffffffffffffffffffffffffffffffffffffffff1614801561174957507f000000000000000000000000000000000000000000000000000000000000000046145b15611776577f000000000000000000000000000000000000000000000000000000000000000090506117e4565b6117e17f00000000000000000000000000000000000000000000000000000000000000007f00000000000000000000000000000000000000000000000000000000000000007f0000000000000000000000000000000000000000000000000000000000000000612012565b90505b90565b60008083805490509050600080829050600583111561185d57600061180b8461204c565b846118169190612e8d565b9050856118238883612145565b60000160009054906101000a900463ffffffff1663ffffffff16111561184b5780915061185b565b6001816118589190612ded565b92505b505b5b808210156118bd576000611872838361215a565b90508561187f8883612145565b60000160009054906101000a900463ffffffff1663ffffffff1611156118a7578091506118b7565b6001816118b49190612ded565b92505b5061185e565b6000811461190c576118db866001836118d69190612e8d565b612145565b60000160049054906101000a90047bffffffffffffffffffffffffffffffffffffffffffffffffffffffff1661190f565b60005b7bffffffffffffffffffffffffffffffffffffffffffffffffffffffff16935050505092915050565b6119428282612180565b5050565b600061195183610704565b9050600061195e846107d5565b905082600760008673ffffffffffffffffffffffffffffffffffffffff1673ffffffffffffffffffffffffffffffffffffffff16815260200190815260200160002060006101000a81548173ffffffffffffffffffffffffffffffffffffffff021916908373ffffffffffffffffffffffffffffffffffffffff1602179055508273ffffffffffffffffffffffffffffffffffffffff168273ffffffffffffffffffffffffffffffffffffffff168573ffffffffffffffffffffffffffffffffffffffff167f3134e8a2e6d97e929a7e54011ea5485d7d196dd5f0ba4d4ef95803e8e3fc257f60405160405180910390a4611a5a828483611e19565b50505050565b600081600001549050919050565b6000611a81611a7b6116cd565b8361219e565b9050919050565b6000806000611a99878787876121d1565b91509150611aa6816122b3565b8192505050949350505050565b600080600560008473ffffffffffffffffffffffffffffffffffffffff1673ffffffffffffffffffffffffffffffffffffffff1681526020019081526020016000209050611b0081611a60565b9150611b0b81612419565b50919050565b60007bffffffffffffffffffffffffffffffffffffffffffffffffffffffff905090565b6000806000858054905090506000808214611c0457611b6087600184611b5b9190612e8d565b612145565b6040518060400160405290816000820160009054906101000a900463ffffffff1663ffffffff1663ffffffff1681526020016000820160049054906101000a90047bffffffffffffffffffffffffffffffffffffffffffffffffffffffff167bffffffffffffffffffffffffffffffffffffffffffffffffffffffff167bffffffffffffffffffffffffffffffffffffffffffffffffffffffff1681525050611c40565b6040518060400160405280600063ffffffff16815260200160007bffffffffffffffffffffffffffffffffffffffffffffffffffffffff168152505b905080602001517bffffffffffffffffffffffffffffffffffffffffffffffffffffffff169350611c7584868863ffffffff16565b9250600082118015611c90575043816000015163ffffffff16145b15611d0a57611c9e836110f6565b611cb488600185611caf9190612e8d565b612145565b60000160046101000a8154817bffffffffffffffffffffffffffffffffffffffffffffffffffffffff02191690837bffffffffffffffffffffffffffffffffffffffffffffffffffffffff160217905550611dfa565b866040518060400160405280611d1f43611161565b63ffffffff168152602001611d33866110f6565b7bffffffffffffffffffffffffffffffffffffffffffffffffffffffff168152509080600181540180825580915050600190039060005260206000200160009091909190915060008201518160000160006101000a81548163ffffffff021916908363ffffffff16021790555060208201518160000160046101000a8154817bffffffffffffffffffffffffffffffffffffffffffffffffffffffff02191690837bffffffffffffffffffffffffffffffffffffffffffffffffffffffff16021790555050505b5050935093915050565b505050565b611e148383836111b4565b505050565b8173ffffffffffffffffffffffffffffffffffffffff168373ffffffffffffffffffffffffffffffffffffffff1614158015611e555750600081115b1561200d57600073ffffffffffffffffffffffffffffffffffffffff168373ffffffffffffffffffffffffffffffffffffffff1614611f3357600080611edc600860008773ffffffffffffffffffffffffffffffffffffffff1673ffffffffffffffffffffffffffffffffffffffff1681526020019081526020016000206111e485611b35565b915091508473ffffffffffffffffffffffffffffffffffffffff167fdec2bacdd2f05b59de34da9b523dff8be42e5e38e818c82fdb0bae774387a7248383604051611f28929190613740565b60405180910390a250505b600073ffffffffffffffffffffffffffffffffffffffff168273ffffffffffffffffffffffffffffffffffffffff161461200c57600080611fb5600860008673ffffffffffffffffffffffffffffffffffffffff1673ffffffffffffffffffffffffffffffffffffffff1681526020019081526020016000206110e085611b35565b915091508373ffffffffffffffffffffffffffffffffffffffff167fdec2bacdd2f05b59de34da9b523dff8be42e5e38e818c82fdb0bae774387a7248383604051612001929190613740565b60405180910390a250505b5b505050565b6000838383463060405160200161202d959493929190613769565b6040516020818303038152906040528051906020012090509392505050565b600080820361205e5760009050612140565b6000600161206b8461242f565b901c6001901b90506001818481612085576120846137bc565b5b048201901c9050600181848161209e5761209d6137bc565b5b048201901c905060018184816120b7576120b66137bc565b5b048201901c905060018184816120d0576120cf6137bc565b5b048201901c905060018184816120e9576120e86137bc565b5b048201901c90506001818481612102576121016137bc565b5b048201901c9050600181848161211b5761211a6137bc565b5b048201901c905061213c81828581612136576121356137bc565b5b04612510565b9150505b919050565b60008260005281602060002001905092915050565b6000600282841861216b91906137eb565b8284166121789190612ded565b905092915050565b61218a8282612529565b61219860096111e483611b35565b50505050565b600082826040516020016121b3929190613894565b60405160208183030381529060405280519060200120905092915050565b6000807f7fffffffffffffffffffffffffffffff5d576e7357a4501ddfe92f46681b20a08360001c111561220c5760006003915091506122aa565b60006001878787876040516000815260200160405260405161223194939291906138cb565b6020604051602081039080840390855afa158015612253573d6000803e3d6000fd5b505050602060405103519050600073ffffffffffffffffffffffffffffffffffffffff168173ffffffffffffffffffffffffffffffffffffffff16036122a1576000600192509250506122aa565b80600092509250505b94509492505050565b600060048111156122c7576122c6613910565b5b8160048111156122da576122d9613910565b5b031561241657600160048111156122f4576122f3613910565b5b81600481111561230757612306613910565b5b03612347576040517f08c379a000000000000000000000000000000000000000000000000000000000815260040161233e9061398b565b60405180910390fd5b6002600481111561235b5761235a613910565b5b81600481111561236e5761236d613910565b5b036123ae576040517f08c379a00000000000000000000000000000000000000000000000000000000081526004016123a5906139f7565b60405180910390fd5b600360048111156123c2576123c1613910565b5b8160048111156123d5576123d4613910565b5b03612415576040517f08c379a000000000000000000000000000000000000000000000000000000000815260040161240c90613a89565b60405180910390fd5b5b50565b6001816000016000828254019250508190555050565b600080600090506000608084901c111561245157608083901c92506080810190505b6000604084901c111561246c57604083901c92506040810190505b6000602084901c111561248757602083901c92506020810190505b6000601084901c11156124a257601083901c92506010810190505b6000600884901c11156124bd57600883901c92506008810190505b6000600484901c11156124d857600483901c92506004810190505b6000600284901c11156124f357600283901c92506002810190505b6000600184901c1115612507576001810190505b80915050919050565b600081831061251f5781612521565b825b905092915050565b600073ffffffffffffffffffffffffffffffffffffffff168273ffffffffffffffffffffffffffffffffffffffff1603612598576040517f08c379a000000000000000000000000000000000000000000000000000000000815260040161258f90613b1b565b60405180910390fd5b6125a482600083611e04565b60008060008473ffffffffffffffffffffffffffffffffffffffff1673ffffffffffffffffffffffffffffffffffffffff1681526020019081526020016000205490508181101561262a576040517f08c379a000000000000000000000000000000000000000000000000000000000815260040161262190613bad565b60405180910390fd5b8181036000808573ffffffffffffffffffffffffffffffffffffffff1673ffffffffffffffffffffffffffffffffffffffff1681526020019081526020016000208190555081600260008282540392505081905550600073ffffffffffffffffffffffffffffffffffffffff168373ffffffffffffffffffffffffffffffffffffffff167fddf252ad1be2c89b69c2b068fc378daa952ba7f163c4a11628f55a4df523b3ef846040516126dd9190612904565b60405180910390a36126f183600084611e09565b505050565b6040518060400160405280600063ffffffff16815260200160007bffffffffffffffffffffffffffffffffffffffffffffffffffffffff1681525090565b600081519050919050565b600082825260208201905092915050565b60005b8381101561276e578082015181840152602081019050612753565b60008484015250505050565b6000601f19601f8301169050919050565b600061279682612734565b6127a0818561273f565b93506127b0818560208601612750565b6127b98161277a565b840191505092915050565b600060208201905081810360008301526127de818461278b565b905092915050565b600080fd5b600073ffffffffffffffffffffffffffffffffffffffff82169050919050565b6000612816826127eb565b9050919050565b6128268161280b565b811461283157600080fd5b50565b6000813590506128438161281d565b92915050565b6000819050919050565b61285c81612849565b811461286757600080fd5b50565b60008135905061287981612853565b92915050565b60008060408385031215612896576128956127e6565b5b60006128a485828601612834565b92505060206128b58582860161286a565b9150509250929050565b60008115159050919050565b6128d4816128bf565b82525050565b60006020820190506128ef60008301846128cb565b92915050565b6128fe81612849565b82525050565b600060208201905061291960008301846128f5565b92915050565b600080600060608486031215612938576129376127e6565b5b600061294686828701612834565b935050602061295786828701612834565b92505060406129688682870161286a565b9150509250925092565b600060ff82169050919050565b61298881612972565b82525050565b60006020820190506129a3600083018461297f565b92915050565b6000819050919050565b6129bc816129a9565b82525050565b60006020820190506129d760008301846129b3565b92915050565b6000602082840312156129f3576129f26127e6565b5b6000612a018482850161286a565b91505092915050565b600060208284031215612a2057612a1f6127e6565b5b6000612a2e84828501612834565b91505092915050565b612a408161280b565b82525050565b6000602082019050612a5b6000830184612a37565b92915050565b600063ffffffff82169050919050565b612a7a81612a61565b82525050565b6000602082019050612a956000830184612a71565b92915050565b612aa481612972565b8114612aaf57600080fd5b50565b600081359050612ac181612a9b565b92915050565b612ad0816129a9565b8114612adb57600080fd5b50565b600081359050612aed81612ac7565b92915050565b60008060008060008060c08789031215612b1057612b0f6127e6565b5b6000612b1e89828a01612834565b9650506020612b2f89828a0161286a565b9550506040612b4089828a0161286a565b9450506060612b5189828a01612ab2565b9350506080612b6289828a01612ade565b92505060a0612b7389828a01612ade565b9150509295509295509295565b600080600080600080600060e0888a031215612b9f57612b9e6127e6565b5b6000612bad8a828b01612834565b9750506020612bbe8a828b01612834565b9650506040612bcf8a828b0161286a565b9550506060612be08a828b0161286a565b9450506080612bf18a828b01612ab2565b93505060a0612c028a828b01612ade565b92505060c0612c138a828b01612ade565b91505092959891949750929550565b60008060408385031215612c3957612c386127e6565b5b6000612c4785828601612834565b9250506020612c5885828601612834565b9150509250929050565b612c6b81612a61565b8114612c7657600080fd5b50565b600081359050612c8881612c62565b92915050565b60008060408385031215612ca557612ca46127e6565b5b6000612cb385828601612834565b9250506020612cc485828601612c79565b9150509250929050565b612cd781612a61565b82525050565b60007bffffffffffffffffffffffffffffffffffffffffffffffffffffffff82169050919050565b612d0e81612cdd565b82525050565b604082016000820151612d2a6000850182612cce565b506020820151612d3d6020850182612d05565b50505050565b6000604082019050612d586000830184612d14565b92915050565b7f4e487b7100000000000000000000000000000000000000000000000000000000600052602260045260246000fd5b60006002820490506001821680612da557607f821691505b602082108103612db857612db7612d5e565b5b50919050565b7f4e487b7100000000000000000000000000000000000000000000000000000000600052601160045260246000fd5b6000612df882612849565b9150612e0383612849565b9250828201905080821115612e1b57612e1a612dbe565b5b92915050565b7f4552433230566f7465733a20626c6f636b206e6f7420796574206d696e656400600082015250565b6000612e57601f8361273f565b9150612e6282612e21565b602082019050919050565b60006020820190508181036000830152612e8681612e4a565b9050919050565b6000612e9882612849565b9150612ea383612849565b9250828203905081811115612ebb57612eba612dbe565b5b92915050565b7f4e487b7100000000000000000000000000000000000000000000000000000000600052603260045260246000fd5b7f45524332303a2064656372656173656420616c6c6f77616e63652062656c6f7760008201527f207a65726f000000000000000000000000000000000000000000000000000000602082015250565b6000612f4c60258361273f565b9150612f5782612ef0565b604082019050919050565b60006020820190508181036000830152612f7b81612f3f565b9050919050565b7f4552433230566f7465733a207369676e61747572652065787069726564000000600082015250565b6000612fb8601d8361273f565b9150612fc382612f82565b602082019050919050565b60006020820190508181036000830152612fe781612fab565b9050919050565b600060808201905061300360008301876129b3565b6130106020830186612a37565b61301d60408301856128f5565b61302a60608301846128f5565b95945050505050565b7f4552433230566f7465733a20696e76616c6964206e6f6e636500000000000000600082015250565b600061306960198361273f565b915061307482613033565b602082019050919050565b600060208201905081810360008301526130988161305c565b9050919050565b7f45524332305065726d69743a206578706972656420646561646c696e65000000600082015250565b60006130d5601d8361273f565b91506130e08261309f565b602082019050919050565b60006020820190508181036000830152613104816130c8565b9050919050565b600060c08201905061312060008301896129b3565b61312d6020830188612a37565b61313a6040830187612a37565b61314760608301866128f5565b61315460808301856128f5565b61316160a08301846128f5565b979650505050505050565b7f45524332305065726d69743a20696e76616c6964207369676e61747572650000600082015250565b60006131a2601e8361273f565b91506131ad8261316c565b602082019050919050565b600060208201905081810360008301526131d181613195565b9050919050565b7f4552433230566f7465733a20746f74616c20737570706c79207269736b73206f60008201527f766572666c6f77696e6720766f74657300000000000000000000000000000000602082015250565b600061323460308361273f565b915061323f826131d8565b604082019050919050565b6000602082019050818103600083015261326381613227565b9050919050565b7f45524332303a206d696e7420746f20746865207a65726f206164647265737300600082015250565b60006132a0601f8361273f565b91506132ab8261326a565b602082019050919050565b600060208201905081810360008301526132cf81613293565b9050919050565b7f53616665436173743a2076616c756520646f65736e27742066697420696e203260008201527f3234206269747300000000000000000000000000000000000000000000000000602082015250565b600061333260278361273f565b915061333d826132d6565b604082019050919050565b6000602082019050818103600083015261336181613325565b9050919050565b7f53616665436173743a2076616c756520646f65736e27742066697420696e203360008201527f3220626974730000000000000000000000000000000000000000000000000000602082015250565b60006133c460268361273f565b91506133cf82613368565b604082019050919050565b600060208201905081810360008301526133f3816133b7565b9050919050565b7f45524332303a20617070726f76652066726f6d20746865207a65726f2061646460008201527f7265737300000000000000000000000000000000000000000000000000000000602082015250565b600061345660248361273f565b9150613461826133fa565b604082019050919050565b6000602082019050818103600083015261348581613449565b9050919050565b7f45524332303a20617070726f766520746f20746865207a65726f20616464726560008201527f7373000000000000000000000000000000000000000000000000000000000000602082015250565b60006134e860228361273f565b91506134f38261348c565b604082019050919050565b60006020820190508181036000830152613517816134db565b9050919050565b7f45524332303a20696e73756666696369656e7420616c6c6f77616e6365000000600082015250565b6000613554601d8361273f565b915061355f8261351e565b602082019050919050565b6000602082019050818103600083015261358381613547565b9050919050565b7f45524332303a207472616e736665722066726f6d20746865207a65726f20616460008201527f6472657373000000000000000000000000000000000000000000000000000000602082015250565b60006135e660258361273f565b91506135f18261358a565b604082019050919050565b60006020820190508181036000830152613615816135d9565b9050919050565b7f45524332303a207472616e7366657220746f20746865207a65726f206164647260008201527f6573730000000000000000000000000000000000000000000000000000000000602082015250565b600061367860238361273f565b91506136838261361c565b604082019050919050565b600060208201905081810360008301526136a78161366b565b9050919050565b7f45524332303a207472616e7366657220616d6f756e742065786365656473206260008201527f616c616e63650000000000000000000000000000000000000000000000000000602082015250565b600061370a60268361273f565b9150613715826136ae565b604082019050919050565b60006020820190508181036000830152613739816136fd565b9050919050565b600060408201905061375560008301856128f5565b61376260208301846128f5565b9392505050565b600060a08201905061377e60008301886129b3565b61378b60208301876129b3565b61379860408301866129b3565b6137a560608301856128f5565b6137b26080830184612a37565b9695505050505050565b7f4e487b7100000000000000000000000000000000000000000000000000000000600052601260045260246000fd5b60006137f682612849565b915061380183612849565b925082613811576138106137bc565b5b828204905092915050565b600081905092915050565b7f1901000000000000000000000000000000000000000000000000000000000000600082015250565b600061385d60028361381c565b915061386882613827565b600282019050919050565b6000819050919050565b61388e613889826129a9565b613873565b82525050565b600061389f82613850565b91506138ab828561387d565b6020820191506138bb828461387d565b6020820191508190509392505050565b60006080820190506138e060008301876129b3565b6138ed602083018661297f565b6138fa60408301856129b3565b61390760608301846129b3565b95945050505050565b7f4e487b7100000000000000000000000000000000000000000000000000000000600052602160045260246000fd5b7f45434453413a20696e76616c6964207369676e61747572650000000000000000600082015250565b600061397560188361273f565b91506139808261393f565b602082019050919050565b600060208201905081810360008301526139a481613968565b9050919050565b7f45434453413a20696e76616c6964207369676e6174757265206c656e67746800600082015250565b60006139e1601f8361273f565b91506139ec826139ab565b602082019050919050565b60006020820190508181036000830152613a10816139d4565b9050919050565b7f45434453413a20696e76616c6964207369676e6174757265202773272076616c60008201527f7565000000000000000000000000000000000000000000000000000000000000602082015250565b6000613a7360228361273f565b9150613a7e82613a17565b604082019050919050565b60006020820190508181036000830152613aa281613a66565b9050919050565b7f45524332303a206275726e2066726f6d20746865207a65726f2061646472657360008201527f7300000000000000000000000000000000000000000000000000000000000000602082015250565b6000613b0560218361273f565b9150613b1082613aa9565b604082019050919050565b60006020820190508181036000830152613b3481613af8565b9050919050565b7f45524332303a206275726e20616d6f756e7420657863656564732062616c616e60008201527f6365000000000000000000000000000000000000000000000000000000000000602082015250565b6000613b9760228361273f565b9150613ba282613b3b565b604082019050919050565b60006020820190508181036000830152613bc681613b8a565b905091905056fea2646970667358221220af1c651d20d2798dab4b9db8f65bf31a7d35cb0e38ad298c001ec1022a5b36c364736f6c63430008110033",
  "immutableReferences": {
    "2354": [
      {
        "length": 32,
        "start": 5968
      }
    ],
    "2356": [
      {
        "length": 32,
        "start": 5927
      }
    ],
    "2358": [
      {
        "length": 32,
        "start": 5841
      }
    ],
    "2360": [
      {
        "length": 32,
        "start": 6044
      }
    ],
    "2362": [
      {
        "length": 32,
        "start": 6077
      }
    ],
    "2364": [
      {
        "length": 32,
        "start": 6011
      }
    ]
  },
  "source": "// SPDX-License-Identifier: MIT\npragma solidity ^0.8.9;\n\nimport \"@openzeppelin/contracts/token/ERC20/ERC20.sol\";\nimport \"@openzeppelin/contracts/token/ERC20/extensions/ERC20Burnable.sol\";\nimport \"@openzeppelin/contracts/token/ERC20/extensions/draft-ERC20Permit.sol\";\nimport \"@openzeppelin/contracts/token/ERC20/extensions/ERC20Votes.sol\";\n\ncontract MyToken is ERC20, ERC20Burnable, ERC20Permit, ERC20Votes {\n    constructor() ERC20(\"MyToken\", \"MTK\") ERC20Permit(\"MyToken\") {\n        _mint(msg.sender, 1500000 * 10 ** decimals());\n    }\n\n    // The following functions are overrides required by Solidity.\n\n    function _afterTokenTransfer(address from, address to, uint256 amount)\n        internal\n        override(ERC20, ERC20Votes)\n    {\n        super._afterTokenTransfer(from, to, amount);\n    }\n\n    function _mint(address to, uint256 amount)\n        internal\n        override(ERC20, ERC20Votes)\n    {\n        super._mint(to, amount);\n    }\n\n    function _burn(address account, uint256 amount)\n        internal\n        override(ERC20, ERC20Votes)\n    {\n        super._burn(account, amount);\n    }\n}\n",
  "sourcePath": "c:\\Users\\Sait\\Documents\\GitHub\\ZeppelinProject\\autotrufflecreatetest\\contracts\\MyFirstToken.sol",
  "compiler": {
    "name": "solc",
    "version": "0.8.17+commit.8df45f5f.Emscripten.clang"
  },
  "schemaVersion": "3.4.10",
  "updatedAt": "2022-11-12T00:45:00.459Z",
  "devdoc": {
    "kind": "dev",
    "methods": {
      "DOMAIN_SEPARATOR()": {
        "details": "See {IERC20Permit-DOMAIN_SEPARATOR}."
      },
      "allowance(address,address)": {
        "details": "See {IERC20-allowance}."
      },
      "approve(address,uint256)": {
        "details": "See {IERC20-approve}. NOTE: If `amount` is the maximum `uint256`, the allowance is not updated on `transferFrom`. This is semantically equivalent to an infinite approval. Requirements: - `spender` cannot be the zero address."
      },
      "balanceOf(address)": {
        "details": "See {IERC20-balanceOf}."
      },
      "burn(uint256)": {
        "details": "Destroys `amount` tokens from the caller. See {ERC20-_burn}."
      },
      "burnFrom(address,uint256)": {
        "details": "Destroys `amount` tokens from `account`, deducting from the caller's allowance. See {ERC20-_burn} and {ERC20-allowance}. Requirements: - the caller must have allowance for ``accounts``'s tokens of at least `amount`."
      },
      "checkpoints(address,uint32)": {
        "details": "Get the `pos`-th checkpoint for `account`."
      },
      "decimals()": {
        "details": "Returns the number of decimals used to get its user representation. For example, if `decimals` equals `2`, a balance of `505` tokens should be displayed to a user as `5.05` (`505 / 10 ** 2`). Tokens usually opt for a value of 18, imitating the relationship between Ether and Wei. This is the value {ERC20} uses, unless this function is overridden; NOTE: This information is only used for _display_ purposes: it in no way affects any of the arithmetic of the contract, including {IERC20-balanceOf} and {IERC20-transfer}."
      },
      "decreaseAllowance(address,uint256)": {
        "details": "Atomically decreases the allowance granted to `spender` by the caller. This is an alternative to {approve} that can be used as a mitigation for problems described in {IERC20-approve}. Emits an {Approval} event indicating the updated allowance. Requirements: - `spender` cannot be the zero address. - `spender` must have allowance for the caller of at least `subtractedValue`."
      },
      "delegate(address)": {
        "details": "Delegate votes from the sender to `delegatee`."
      },
      "delegateBySig(address,uint256,uint256,uint8,bytes32,bytes32)": {
        "details": "Delegates votes from signer to `delegatee`"
      },
      "delegates(address)": {
        "details": "Get the address `account` is currently delegating to."
      },
      "getPastTotalSupply(uint256)": {
        "details": "Retrieve the `totalSupply` at the end of `blockNumber`. Note, this value is the sum of all balances. It is but NOT the sum of all the delegated votes! Requirements: - `blockNumber` must have been already mined"
      },
      "getPastVotes(address,uint256)": {
        "details": "Retrieve the number of votes for `account` at the end of `blockNumber`. Requirements: - `blockNumber` must have been already mined"
      },
      "getVotes(address)": {
        "details": "Gets the current votes balance for `account`"
      },
      "increaseAllowance(address,uint256)": {
        "details": "Atomically increases the allowance granted to `spender` by the caller. This is an alternative to {approve} that can be used as a mitigation for problems described in {IERC20-approve}. Emits an {Approval} event indicating the updated allowance. Requirements: - `spender` cannot be the zero address."
      },
      "name()": {
        "details": "Returns the name of the token."
      },
      "nonces(address)": {
        "details": "See {IERC20Permit-nonces}."
      },
      "numCheckpoints(address)": {
        "details": "Get number of checkpoints for `account`."
      },
      "permit(address,address,uint256,uint256,uint8,bytes32,bytes32)": {
        "details": "See {IERC20Permit-permit}."
      },
      "symbol()": {
        "details": "Returns the symbol of the token, usually a shorter version of the name."
      },
      "totalSupply()": {
        "details": "See {IERC20-totalSupply}."
      },
      "transfer(address,uint256)": {
        "details": "See {IERC20-transfer}. Requirements: - `to` cannot be the zero address. - the caller must have a balance of at least `amount`."
      },
      "transferFrom(address,address,uint256)": {
        "details": "See {IERC20-transferFrom}. Emits an {Approval} event indicating the updated allowance. This is not required by the EIP. See the note at the beginning of {ERC20}. NOTE: Does not update the allowance if the current allowance is the maximum `uint256`. Requirements: - `from` and `to` cannot be the zero address. - `from` must have a balance of at least `amount`. - the caller must have allowance for ``from``'s tokens of at least `amount`."
      }
    },
    "version": 1
  },
  "userdoc": {
    "kind": "user",
    "methods": {},
    "version": 1
  }
}